:100000000C9462030C948A030C948A030C948A0364
:100010000C948A030C948A030C948A030C948A032C
:100020000C948A030C948A030C948A030C948A031C
:100030000C948A030C948A030C948A030C948A030C
:100040000C9466120C948A030C941D0C0C94F70B00
:100050000C948A030C948A030C948A030C948A03EC
:100060000C944F0C0C948A03005EBCE2613FDD836C
:10007000C29C7E20A3FD1F419DC3217FFCA2401E88
:100080005F01E3BD3E6082DC237D9FC1421CFEA078
:10009000E1BF5D0380DE3C62BEE0025CDF81633D68
:1000A0007C22C09E1D43A1FF4618FAA427799BC558
:1000B00084DA3866E5BB5907DB856739BAE4065848
:1000C0001947A5FB7826C49A653BD987045AB8E638
:1000D000A7F91B45C6987A24F8A6441A99C7257B28
:1000E0003A6486D85B05E7B98CD2306EEDB3510F18
:1000F0004E10F2AC2F7193CD114FADF3702ECC9208
:10010000D38D6F31B2EC0E50AFF1134DCE90722CF7
:100110006D33D18F0C52B0EE326C8ED0530DEFB1E7
:10012000F0AE4C1291CF2D73CA947628ABF51749D7
:100130000856B4EA6937D58B5709EBB536688AD4C7
:1001400095CB2977F4AA4816E9B7550B88D6346AB7
:100150002B7597C94A14F6A8742AC896154BA9F7A7
:10016000B6E80A54D7896B3500000000003E5B4FAB
:100170005B3E3E6B4F6B3E1C3E7C3E1C183C7E3C07
:10018000181C577D571C1C5E7F5E1C00183C180015
:10019000FFE7C3E7FF0018241800FFE7DBE7FF30A5
:1001A000483A060E2629792926407F050507407F13
:1001B00005253F5A3CE73C5A7F3E1C1C08081C1C86
:1001C0003E7F14227F22145F5F005F5F06097F017C
:1001D0007F006689956A606060606094A2FFA29467
:1001E00008047E040810207E201008082A1C080835
:1001F0001C2A08081E101010100C1E0C1E0C303883
:100200003E3830060E3E0E06000000000000005F83
:1002100000000007000700147F147F14242A7F2A9F
:100220001223130864623649562050000807030061
:10023000001C2241000041221C002A1C7F1C2A08AD
:10024000083E080800807030000808080808000010
:1002500060600020100804023E5149453E00427F84
:10026000400072494949462141494D331814127FD3
:100270001027454545393C4A494931412111090773
:100280003649494936464949291E000014000000F4
:1002900040340000000814224114141414140041C6
:1002A00022140802015909063E415D594E7C121183
:1002B000127C7F494949363E414141227F414141BB
:1002C0003E7F494949417F090909013E4141517336
:1002D0007F0808087F00417F41002040413F017FA7
:1002E000081422417F404040407F021C027F7F046F
:1002F00008107F3E4141413E7F090909063E4151B8
:10030000215E7F09192946264949493203017F01A7
:10031000033F4040403F1F2040201F3F4038403FA8
:10032000631408146303047804036159494D4300BE
:100330007F4141410204081020004141417F0402F5
:10034000010204404040404000030708002054548C
:1003500078407F284444383844444428384444286A
:100360007F385454541800087E090218A4A49C78BD
:100370007F0804047800447D40002040403D007F19
:100380001028440000417F40007C047804787C08F9
:100390000404783844444438FC18242418182424CD
:1003A00018FC7C08040408485454542404043F44B2
:1003B000243C4040207C1C2040201C3C4030403CE1
:1003C00044281028444C9090907C4464544C440041
:1003D00008364100000077000000413608000201A5
:1003E0000204023C2623263C1EA1A161123A404091
:1003F000207A38545455592155557941225454780E
:1004000042215554784020545579400C1E527212A6
:10041000395555555939545454593955545458002F
:1004200000457C410002457D420001457C407D1233
:1004300011127DF0282528F07C5455450020545495
:100440007C547C0A097F4932494949323A44444440
:100450003A324A4848303A4141217A3A424020787B
:10046000009DA0A07D3D4242423D3D4040403D3C7C
:1004700024FF2424487E4943662B2FFC2F2BFF09A1
:1004800029F620C0887E0903205454794100004495
:100490007D413048484A32384040227A007A0A0A80
:1004A000727D0D19317D2629292F282629292926F3
:1004B00030484D4020380808080808080808382F38
:1004C00010C8ACBA2F102834FA00007B00000814C2
:1004D0002A142222142A14085500550055AA55AA98
:1004E00055AAFF55FF55FF000000FF00101010FF38
:1004F00000141414FF001010FF00FF1010F010F093
:10050000141414FC001414F700FF0000FF00FF1483
:1005100014F404FC141417101F10101F101F1414CF
:10052000141F00101010F0000000001F1010101019
:100530001F10101010F010000000FF10101010100D
:1005400010101010FF10000000FF140000FF00FF4B
:1005500000001F10170000FC04F4141417101714E7
:1005600014F404F40000FF00F71414141414141409
:10057000F700F7141414171410101F101F1414147C
:10058000F4141010F010F000001F101F0000001FE6
:1005900014000000FC140000F010F01010FF10FF19
:1005A000141414FF141010101F00000000F010FFAE
:1005B000FFFFFFFFF0F0F0F0F0FFFFFF0000000092
:1005C00000FFFF0F0F0F0F0F3844443844FC4A4A16
:1005D0004A347E02020606027E027E0263554941CB
:1005E000633844443C04407E201E2006027E020202
:1005F00099A5E7A5991C2A492A1C4C7201724C3016
:100600004A4D4D303048784830BC625A463D3E49EC
:100610004949007E0101017E2A2A2A2A2A44445F90
:10062000444440514A444040444A51400000FF0184
:1006300003E080FF000008086B6B08361236243692
:10064000060F090F060000181800000010100030F7
:1006500040FF0101001F01011E00191D1712003C7F
:100660003C3C3C000000000000000000240027008B
:100670002A0000000000250028002B0000000008D0
:100680000002010000030407000000000000000059
:1006900000000000230026002900040404040404D0
:1006A0000404020202020202030303030303010221
:1006B00004081020408001020408102001020408F0
:1006C0001020351811241FBECFEFD8E0DEBFCDBFFC
:1006D00027E0A0E9B5E001C01D92A035B207E1F71F
:1006E00015E0A0E0B1E0E4EFFAE302C005900D925E
:1006F000A039B107D9F713E0C2E6D3E004C02197CF
:10070000FE010E94761BC136D107C9F70E94B012C4
:100710000C94781D0C940000CF92DF92EF92FF9220
:100720000F931F93CF93DF936C017A018B01C0E08D
:10073000D0E0CE15DF0581F0D8016D918D01D60195
:10074000ED91FC910190F081E02DC6010995892B76
:1007500011F02196EECF7E01C701DF91CF911F915D
:100760000F91FF90EF90DF90CF900895FC01538D93
:10077000448D252F30E0842F90E0821B930B54177B
:1007800010F0CF96089501970895FC01918D828D08
:10079000981761F0828DDF01A80FB11D5D968C91D5
:1007A000928D9F5F9F73928F90E008958FEF9FEFE0
:1007B0000895FC01918D828D981731F0828DE80F9C
:1007C000F11D858D90E008958FEF9FEF0895FC0156
:1007D000918D228D892F90E0805C9F4F821B910923
:1007E0008F739927089585E496E00E94E70321E03E
:1007F000892B09F420E0822F0895FC01848DDF010C
:10080000A80FB11DA35ABF4F2C91848D90E0019683
:100810008F739927848FA689B7892C93A089B18972
:100820008C91837080648C93938D848D981306C013
:100830000288F389E02D80818F7D80830895EF9277
:10084000FF920F931F93CF93DF93EC0181E0888F8A
:100850009B8D8C8D981305C0E889F989808185FD71
:1008600026C0F62E0B8D10E00F5F1F4F0F73112760
:10087000E02E8C8DE8120CC00FB607FCFACFE88989
:10088000F989808185FFF5CFCE010E94FD03F1CF6C
:100890008B8DFE01E80FF11DE35AFF4FF0829FB7E9
:1008A000F8940B8FEA89FB89808180620AC09FB728
:1008B000F894EE89FF896083E889F98980818370E3
:1008C000806480839FBF81E090E0DF91CF911F9192
:1008D0000F91FF90EF900895CF93DF93EC01888DF7
:1008E0008823C9F0EA89FB89808185FD05C0A88934
:1008F000B9898C9186FD0FC00FB607FCF5CF8081BA
:1009000085FFF2CFA889B9898C9185FFEDCFCE0103
:100910000E94FD03E7CFDF91CF91089580E090E042
:10092000892B29F00E94F30381110C940000089593
:1009300008952F923F924F925F926F927F928F9283
:100940009F92AF92BF92CF92DF92EF92FF920F935E
:100950001F93CF93DF93CDB7DEB72D970FB6F894E3
:10096000DEBF0FBECDBF9D878C876A30A1F4DC014E
:1009700054962C9154971E968D919C911F97B8E098
:100980002B9F800D911D1124EC85FD85978786870F
:1009900015861486F8C06D3009F4F5C0AC85BD85A8
:1009A0001C96CD90DC901D9718968D919C9119976F
:1009B000C816D906BCF0EC85FD854489242F30E0AB
:1009C00084859585F6E04F9F800D911D1124AC859F
:1009D000BD851D969C938E931C9756964C91411104
:1009E000AEC0D1C0EC85FD858684978482859385D1
:1009F0008816990604F7F489F983AF2EB12CC60145
:100A000026E0F29F800D911D1124181619069CF600
:100A1000C50123E0880F991F2A95E1F7880D991DDC
:100A20001816190644F6AC85BD8557968C91811130
:100A300003C0603B08F06F5FEC85FD850288F38999
:100A4000E02DFD83EC83AC85BD8550960D90BC9167
:100A5000A02DBF83AE83B5E06B9FB00111241601BA
:100A60001A82FB01EC19FD09F987E8879401285FD8
:100A70003F4F3B872A873A81353049F0E885F98531
:100A8000E20DF31DE859FE4F54915B8301C01B82B8
:100A9000240134018B8180FF13C0AC85BD85ED91AD
:100AA000FC91B981B13031F40084F185E02D2E81C3
:100AB0003F8119C00288F389E02DEE80FF801EC0BF
:100AC000EC81FD812E813F81E217F307F1F0AC85C7
:100AD000BD85ED91FC91B981B13059F40084F18567
:100AE000E02D2C813D81A301B1018C859D85099567
:100AF0000CC00288F389E02DEC80FD808501950112
:100B0000A201B6018C859D850995EB81E695EB8365
:100B1000FFEF6F1A7F0A4A0C5B1C2A853B8526155E
:100B2000370509F0B7CF3A813F5F3A835FEF251A67
:100B3000350ACA0CDB1C363009F09DCF3CCF4AEF9A
:100B40004203B001439F700D1124AC85BD851896FA
:100B50004D915C911997460F571F481759079CF400
:100B600083E0220F331F8A95E1F71E968D919C91A9
:100B70001F97280F391F1F963C932E931E971D9683
:100B80001C921E921C9781E090E02D960FB6F8946F
:100B9000DEBF0FBECDBFDF91CF911F910F91FF90B0
:100BA000EF90DF90CF90BF90AF909F908F907F900D
:100BB0006F905F904F903F902F900895EF92FF922B
:100BC0000F931F93DC011A960D911C911B97189699
:100BD0002D913C911997ED91FC910288F389E02DBC
:100BE0007B0140E050E060E070E009951F910F91BB
:100BF000FF90EF9008956F927F928F929F92AF92A5
:100C0000BF92CF92DF92EF92FF920F931F93CF93F9
:100C1000DF936C015A014801EB013B01620E731E28
:100C2000C615D70574F4D601ED91FC910484F585C1
:100C3000E02D87019401A501BE01C6010995219609
:100C4000EFCFDF91CF911F910F91FF90EF90DF9049
:100C5000CF90BF90AF909F908F907F906F900895AE
:100C6000EF92FF920F931F93260F371F21503109E8
:100C7000DC01ED91FC910284F385E02D78018A017D
:100C800009951F910F91FF90EF900895EF92FF92B9
:100C90000F931F93240F351F21503109DC01ED9173
:100CA000FC910284F385E02D780189019B0109956F
:100CB0001F910F91FF90EF9008956F927F928F9206
:100CC0009F92AF92BF92CF92DF92EF92FF920F93DB
:100CD0001F93CF93DF93EC014B015A016901380157
:100CE000E881F9810684F785E02D87010995A50142
:100CF000460D571D41505109E881F9810684F78559
:100D0000E02D9601B401CE010995E881F9810484B2
:100D1000F585E02D9301A501B401CE010995C80C1C
:100D2000D91CB60161507109E881F9810484F58507
:100D3000E02D9301A501CE010995DF91CF911F917F
:100D40000F91FF90EF90DF90CF90BF90AF909F906A
:100D50008F907F906F9008952F923F924F925F9265
:100D60006F927F928F929F92AF92BF92CF92DF92BB
:100D7000EF92FF920F931F93CF93DF9300D000D099
:100D800000D0CDB7DEB72C017E836D836A01590197
:100D9000C801FC82EB824801841A950A97FE03C0C1
:100DA00091948194910835012D813E81621A730AD4
:100DB00077FE03C0719461947108681479045CF43F
:100DC0003A2D2B2D5C01832F922F3D812E81DE82C7
:100DD000CD82C32ED22EAD81BE81AA16BB065CF495
:100DE0003C2D2D2D6C01832F922F3D812E81BE82B3
:100DF000AD82A32EB22E85012D813E81021B130BE5
:100E00001C012C183D0837FE03C031942194310891
:100E1000780117FF03C03FEFE31AF30AF594E79454
:100E2000C816D9062CF08FEF9FEF9A83898304C0F0
:100E3000A1E0B0E0BA83A9832D813E81A216B3065A
:100E400024F1D201ED91FC910084F185E02D2B81FC
:100E50003C816814790424F44D815E81B60103C09D
:100E6000A6016D817E81C2010995E218F308F7FEA3
:100E700006C029813A81C20ED31EE00EF11E8D817B
:100E80009E8101969E838D83D7CF26960FB6F894C8
:100E9000DEBF0FBECDBFDF91CF911F910F91FF90AD
:100EA000EF90DF90CF90BF90AF909F908F907F900A
:100EB0006F905F904F903F902F9008950F931F93E6
:100EC000CF93DF93DC0155968C915597823071F06A
:100ED000833009F1813009F08CC01496ED91FC91BA
:100EE0001597E41BF50BE21BF30B20C01496ED9154
:100EF000FC911597CF01861B970BBC0161507109BE
:100F00001696ED91FC911797CF01841B950BAC01C0
:100F1000421B530B6EC01696ED91FC911797CF01B3
:100F2000861B970BBC0161507109FA0177FD1BC14B
:100F300016968D919C911797681779070CF013C13D
:100F4000F7FF04C02E0F3F1FE0E0F0E014968D91F4
:100F50009C911597AF01420F531F841795071CF4FE
:100F60009C012E1B3F0B121613060CF0FCC0CB018C
:100F700077FD079643E0959587954A95E1F7969515
:100F8000982F882797958795E80FF91FE050FF4F16
:100F90006770772781E090E001C0880F6A95EAF7D3
:100FA000482F0130110541F088F00230110509F099
:100FB000DAC02E0F3F1F15C02E0F3F1FE217F30799
:100FC00009F4D1C08081842B8193F8CF80952E0FB6
:100FD0003F1FE217F30709F4C6C09081982391934D
:100FE000F8CFE217F30709F4BEC08081842781930C
:100FF000F8CF77FDB8C014968D919C91159768171E
:1010000079070CF0B0C057FF04C0240F351F40E033
:1010100050E016968D919C911797FA01E20FF31FFD
:101020008E179F071CF49C01241B350B1216130608
:101030000CF099C0A22F842F86958695869590E80E
:10104000899F600D711D1124FB01E050FF4F477017
:10105000A9F198E0941B492F50E0EA01C25FDA4FF2
:101060008881291790F4421B51092FEF30E002C00C
:10107000359527954A95E2F782230130110541F015
:1010800068F00230110589F06EC00130110519F4C5
:101090002081822B0CC00130110520F48095208125
:1010A000822305C00230110531F42081822780831C
:1010B000A91708F458C0A91BE058FF4FA83048F101
:1010C0000230110559F4EF018A2F98819095988389
:1010D000C058DF4F88508830C0F730C081E0013001
:1010E000110509F080E08195EF019A2F8883C0589F
:1010F000DF4F98509830D0F788EF8A0F8695869505
:10110000869590E8899FE00DF11D1124E058FF4F6E
:10111000A770AA2341F1B0E0AA5FBA4F8C910130C9
:10112000110529F038F002301105E9F419C0908159
:10113000892B18C080959081892314C088EF8A0F6D
:1011400086958695869590E8899FE00DF11D11247E
:10115000E058FF4FA77039F0B0E0AA5FBA4F8C910A
:10116000908189278083DF91CF911F910F910895FE
:101170000F931F93CF93DF93DC01FB0155968C9166
:101180005597823089F0833021F1813009F0E7C032
:1011900014968D919C911597BC01641B750BAB0146
:1011A00041505109BF011DC014966D917C91159756
:1011B000CB018E1B9F0BFC0116968D919C9117976E
:1011C000BC01641B750BAB0141505109E21BF30BD1
:1011D000C6C016966D917C9117976E1B7F0B621B94
:1011E000730B57FD1BC114968D919C911597481751
:1011F00059070CF013C177FF04C0260F371F60E0BA
:1012000070E016968D919C911797FB01E20FF31FEA
:101210008E179F071CF49C01261B370B1216130612
:101220000CF0FCC0A22F862F86958695869590E8B7
:10123000899F400D511D1124FA01E050FF4F677046
:10124000A9F198E0961B492F50E0EA01C25FDA4FFE
:101250008881291790F4421B51092FEF30E002C01A
:10126000359527954A95E2F782230130110541F023
:1012700068F00230110589F0D1C00130110519F470
:101280002081822B0CC00130110520F48095208133
:10129000822305C00230110531F42081822780832A
:1012A000A91708F4BBC0A91BE058FF4FA83048F1AC
:1012B0000230110559F4EF018A2F98819095988397
:1012C000C058DF4F88508830C0F733C081E001300C
:1012D000110509F080E08195EF019A2F8883C058AD
:1012E000DF4F98509830D0F788EF8A0F8695869513
:1012F000869560E8869FE00DF11D1124E058FF4FB0
:10130000A770AA2309F48AC0B0E0AA5FBA4F8C91F3
:101310000130110531F040F00230110509F07EC0B6
:101320001BC09081892B03C0809590818923808385
:1013300075C088EF8A0F86958695869570E8879F99
:10134000E00DF11D1124E058FF4FA77009F466C0AD
:10135000B0E0AA5FBA4F8C9190818927E8CF57FD02
:101360005DC016968D919C911797481759070CF000
:1013700055C0F7FF04C02E0F3F1FE0E0F0E01496C9
:101380008D919C911597BF01620F731F8617970768
:101390001CF49C012E1B3F0B121613060CF03EC0D2
:1013A000CA0157FD079663E0959587956A95E1F721
:1013B0009695982F882797958795E80FF91FE05005
:1013C000FF4F4770552781E090E001C0880F4A9594
:1013D000EAF7482F0130110539F078F00230110595
:1013E000E9F42E0F3F1F13C02E0F3F1FE217F30724
:1013F000A9F08081842B8193F9CF80952E0F3F1F18
:10140000E217F30759F0908198239193F9CFE217EF
:10141000F30721F0808184278193F9CFDF91CF9169
:101420001F910F910895FC0177FD9AC080859185E9
:10143000681779070CF094C057FD92C08285938598
:10144000481759070CF08CC08589823009F07CC0A0
:1014500084819581DC01A61BB70BBD016150710928
:1014600086819781FC01E41BF50BAF0141505109C6
:101470000AC0813041F484819581841B950BAB01B6
:10148000BC01615071092130310529F008F1223089
:101490003105E1F10895FA0157FD3796A3E0F5957E
:1014A000E795AA95E1F7F695FE2FEE27F795E795D4
:1014B0006E0F7F1FFB01E050FF4F4770552781E003
:1014C00090E001C0880F4A95EAF79081892B3AC0D5
:1014D000FA0157FD379623E0F595E7952A95E1F750
:1014E000F695FE2FEE27F795E7956E0F7F1FFB0110
:1014F000E050FF4F4770552781E090E001C0880F12
:101500004A95EAF78095908189231CC0FA0157FD1E
:10151000379683E0F595E7958A95E1F7F695FE2FE6
:10152000EE27F795E7956E0F7F1FFB01E050FF4F09
:101530004770552781E090E001C0880F4A95EAF78F
:101540009081892780830895833009F092CF868126
:101550009781861B970BBA01AC014150510993CF7B
:10156000089585ED8093BC008091BC0084FDFCCF84
:101570001092200608954091B005262F30E0240FE8
:10158000311D21323105DCF4209120062430C9F4CC
:10159000FC0180E090E0861758F43091B00521916D
:1015A000DC01A057BA4FA30FB11D2C930196F3CFC6
:1015B0008091B005680F6093B00580E0089581E0E8
:1015C000089582E00895089508950895E091F90539
:1015D0008091F805E81730F4F0E0ED52FA4F808181
:1015E00090E008958FEF9FEF08959091F905809115
:1015F000F805981750F4E92FF0E0ED52FA4F2081EA
:1016000030E09F5F9093F90502C02FEF3FEFC901D3
:1016100008958091F80590E02091F905821B9109C9
:101620000895CF92DF92EF92FF920F931F93CF9383
:10163000DF937C01CB018A0120912106222389F0CE
:10164000EB016B01C40ED51ECC15DD0569F0699167
:10165000D701ED91FC910190F081E02DC701099532
:10166000F3CF642F0E94BB0AC801DF91CF911F9175
:101670000F91FF90EF90DF90CF900895CF93DF937D
:101680001F92CDB7DEB76983209121062223D1F0C6
:1016900020914406203240F021E030E0FC01338309
:1016A000228380E090E015C080912206E82FF0E0D0
:1016B000ED5DF94F998190838F5F8093220680932F
:1016C000440605C061E0CE0101960E94BB0A81E09C
:1016D00090E00F90DF91CF910895089580E090E021
:1016E0000895FC0190810180F281E02D892F809581
:1016F00060FF12C0F8942281822382838181892B2A
:101700008183A3E2B0E01197F1F78281982B928355
:10171000789487ED90E011C0F8942281822382832F
:101720008181892B8183AFEFB0E01197F1F782813E
:10173000982B928378948FE090E00197F1F70895C9
:101740000E94631DEF92FF920F931F93CF93DF933D
:10175000EC017B018A0188819981009729F02A8117
:101760003B8124173507F8F4B8016F5F7F4F0E9463
:101770009D1C009759F0998388831B830A832C81D1
:101780003D81232B81F4FC0110820DC08881998159
:10179000009711F00E94141C198218821D821C826D
:1017A0001B821A8207C01D830C83B701888199812F
:1017B0000E94711DCE01DF91CF911F910F91FF907B
:1017C000EF9008956115710579F0FB0101900020FB
:1017D000E9F73197AF01461B570BDC01ED91FC9106
:1017E0000280F381E02D099480E090E008951F923B
:1017F0000F920FB60F9211242F933F934F935F9345
:101800006F937F938F939F93AF93BF93EF93FF93C8
:1018100085E496E00E94FD03FF91EF91BF91AF91A7
:101820009F918F917F916F915F914F913F912F91F8
:101830000F900FBE0F901F9018951F920F920FB62A
:101840000F9211242F938F939F93EF93FF93E09127
:101850005506F09156068081E0915B06F0915C069A
:1018600082FD12C0908180915E068F5F8F73209100
:101870005F06821751F0E0915E06F0E0EB5BF94FF6
:10188000958F80935E0601C08081FF91EF919F91BB
:101890008F912F910F900FBE0F901F9018951F9250
:1018A0000F920FB60F9211242F933F934F935F9394
:1018B0006F937F938F939F93AF93BF93EF93FF9318
:1018C0008091B900887F803609F49CC068F5883221
:1018D00009F45BC090F4803109F454C038F48823D3
:1018E00009F4F6C0883009F44DC0F6C0883109F417
:1018F0004CC0803209F45DC0EFC0803409F468C088
:1019000048F4803309F455C0883309F0E5C080936A
:101910001E06D8C0803509F44FC0883509F45DC073
:10192000883409F0D9C0D6C0883909F4C7C0A8F4F2
:10193000883709F467C038F4883609F463C0803703
:1019400009F460C0C9C0883809F4B8C0803909F406
:101950005FC0803809F0C0C05BC0803B09F486C01E
:1019600038F4803A09F466C0883A09F47FC0B4C0FC
:10197000803C09F4A7C0883C09F4A4C0883B09F462
:101980008AC0AAC08091FB0510C090911D0680916D
:101990001C06981770F5E0911D0681E08E0F80936C
:1019A0001D06F0E0E450FA4F80818093BB0085EC87
:1019B00086C080931E068EC0E0911D0681E08E0FCA
:1019C00080931D068091BB00F0E0E450FA4F8083C5
:1019D00090911D0680911C066EC0E0911D0681E06D
:1019E0008E0F80931D068091BB00F0E0E450FA4F0B
:1019F000808380911F0681116DC081E08093FA057C
:101A000084EA61C083E0809320061092D205CFCF94
:101A10008091D205803208F051C0E091D20581E07A
:101A20008E0F8093D2058091BB00F0E0EE54FA4F08
:101A30008083BDCF85EC8093BC00109220068091FE
:101A4000D205803230F4E091D205F0E0EE54FA4F46
:101A500010826091D20570E0E091F405F091F505F7
:101A600082EB95E009951092D20536C084E0809310
:101A700020061092B1051092B005E091F605F091A4
:101A8000F70509958091B005811105C081E080932B
:101A9000B00510929005E091B10581E08E0F809322
:101AA000B105F0E0E057FA4F80818093BB00909140
:101AB000B1058091B005981708F479CF85E8809337
:101AC000BC000AC085EC8093BC001092200604C0C4
:101AD00010921E060E94B10AFF91EF91BF91AF9143
:101AE0009F918F917F916F915F914F913F912F9136
:101AF0000F900FBE0F901F901895DC0180E0615091
:101B000040F09D91E82FE927F0E0E859FF4F8491DC
:101B1000F6CF0895DF92EF92FF920F931F93CF932A
:101B2000DF93EC01D62EE42E08E010E0FF24F394BE
:101B300061E08D2D8F2109F460E0CE010E94710BD0
:101B4000FF0C01501109A1F7E11010C0F894E981D0
:101B5000FA8191818881809589238183E981FA8145
:101B6000928188818095892382837894DF91CF91B7
:101B70001F910F91FF90EF90DF900895EF92FF92E9
:101B80000F931F93CF93DF938C017B0140E065E5BA
:101B90000E948A0DE70188E0E80EF11C699140E09F
:101BA000C8010E948A0DCE15DF05C1F7DF91CF91E4
:101BB0001F910F91FF90EF900895FC01908101809B
:101BC000F281E02DF8948181892B81832281892FF4
:101BD000809528232283A7E0B0E01197F1F72181B7
:101BE00082238183A3E2B0E01197F1F7808178949A
:101BF000EFECF0E03197F1F7982381E009F480E011
:101C00000895EF92FF920F931F93CF93DF937C0180
:101C100008E010E0C0E0D1E0C7010E94DD0D8111B5
:101C2000CD2BDD0F01501109B9F78C2FDF91CF912A
:101C30001F910F91FF90EF900895DC012C91119668
:101C4000ED91FC911297F8948181922F90958923C0
:101C5000818378948DE743E050E0815021F1DA01EF
:101C60001197F1F730813223C1F3F89482818923EF
:101C700082838181822B81837894ABE7B7E01197CF
:101C8000F1F7F89481819823918383E191E00197A2
:101C9000F1F78081282381E009F080E07894E3E681
:101CA000F6E03197F1F70895BF92CF92DF92EF926D
:101CB000FF920F931F93CF93DF93EC01D62EC72E85
:101CC0008D8581115BC0CE010E941D0E811104C063
:101CD0001B861D861C8666C040E060EFCE010E9418
:101CE0008A0D01E0E12CB12C11E0CE010E94DD0D46
:101CF000F82ECE010E94DD0D91E0F91203C0813073
:101D0000B1F434C02E2D30E0F8121BC08B851817AB
:101D100038F4FE01E20FF31F8381802341F402C0F7
:101D2000181729F0F12C193058F41C8709C0FE014E
:101D3000EE0DF11D8381802B8383FF24F39409C072
:101D4000B12EFE01E20FF31F9381802F809589232E
:101D500083836F2DCE010E94710B1F5F000F11F462
:101D6000E39401E087E08E1508F0BFCF113430F026
:101D7000BB86B11012C081E08D870FC01B861D8607
:101D80001C8680E0DE011396ED2DFC2D2B969D9197
:101D90009193AC17BD07D9F705C08B81882371F3E8
:101DA00081E0F0CFDF91CF911F910F91FF90EF90E5
:101DB000DF90CF90BF90089590912807992339F034
:101DC0008EBD00000DB407FEFDCF8EB5089528E04E
:101DD00030E040E8E0912B07F0912C075081909182
:101DE0003207909595239083E0912907F0912A0777
:101DF00090913107582F542319F05081952B03C02F
:101E00005081909595239083E0912B07F0912C07BA
:101E1000508190913207952B90834695215031093E
:101E2000C9F60895EF92FF920F931F93CF93DF931C
:101E30007C018B01C6EFD6E08D819E810E941D0E34
:101E4000B7018D819E810E94BE0D40E06EEB8D81B9
:101E50009E810E948A0D8D819E810E94010EF80153
:101E600080838D819E810E94010EF80181838D8186
:101E70009E810E94010EF80182838D819E810E94C5
:101E8000010EF80183838D819E810E94010EF8016D
:101E900084838D819E810E94010EF80185838D814E
:101EA0009E810E94010EF80186838D819E810E9491
:101EB000010EF80187838D819E810E94010EF80139
:101EC00080878D819E81DF91CF911F910F91FF902F
:101ED000EF900C941D0ECF93DF93CDB7DEB729970B
:101EE0000FB6F894DEBF0FBECDBFBE016F5F7F4F50
:101EF0000E94120F68E0CE0101960E947D0D998527
:101F0000891311C08D818F3361F020F48F3159F422
:101F100089E00CC08F3519F08F3739F004C08BE0A1
:101F200005C08AE003C080E001C08CE029960FB6AE
:101F3000F894DEBF0FBECDBFDF91CF910895282F5B
:101F400030914406313208F04AC080912006811158
:101F5000FCCF9091430642E04093200620931F0659
:101F60002FEF20931E0610921D0630931C06E3E20D
:101F7000F6E0ACEFB5E020E0321721F041914D934F
:101F80002F5FFACF1092FB052091FB05990F922B42
:101F90009093FB059091FA05913061F41092FA0547
:101FA0009091FB059093BB009091BC0093FDF8CFFE
:101FB00095EC01C095EE9093BC0090912006923074
:101FC000E1F390911E069F3F79F080911E068032CA
:101FD00041F080911E06803331F084E005C081E03D
:101FE00003C082E001C083E01092220610924406F2
:101FF000109221060895CF93C82F809123078F3F19
:1020000059F1E0912D07F0912E07908180913307CF
:10201000892B8083E0912F07F09130079081809188
:102020003407809589238083E0912D07F0912E0756
:102030009081809133078095892380838C2F0E9423
:10204000DC0EE0912D07F0912E07908180913307EF
:10205000892B8083CF9108958091210791E09093FF
:10206000210680934306109222061092440660E0F7
:1020700082EE96E00E943E0B6C2F82EE96E00E946C
:102080003E0B81E0CF910C949F0FBF92CF92DF92D5
:10209000EF92FF920F931F93CF93DF9381E20E9401
:1020A000FB0F80E00E94FB0F8FE70E94FB0F82E294
:1020B0000E94FB0F80E00E94FB0F87E00E94FB0F55
:1020C000809123078F3F81F1E0912D07F0912E073A
:1020D000908180913307892B8083E0912F07F091C5
:1020E0003007908180913407892B8083E0912D0700
:1020F000F0912E079081809133078095892380830A
:10210000C0E0D1E000E015E089910E94DC0E0C17E0
:102110001D07D1F7E0912D07F0912E079081809156
:102120003307892B808330C00091B8008CE0809306
:10213000B800C0E0D1E080E0C82E85E0D82EBB24F6
:10214000B39480912107B0922106809343061092A8
:1021500022061092440660E482EE96E00E943E0B56
:102160007E0110E1F70161917F0182EE96E00E940D
:102170003E0B1150B9F781E00E949F0F6096CC167C
:10218000DD06F9F60093B800DF91CF911F910F9112
:10219000FF90EF90DF90CF90BF9008958F929F9225
:1021A000AF92BF920F931F93CF93DF93CDB7DEB75C
:1021B000A1970FB6F894DEBF0FBECDBF19A2423073
:1021C00008F44AE08E010F5D1F4F842E912CA12C44
:1021D000B12CA50194010E94401BE62FB901CA0150
:1021E00001501109EA3014F4E05D01C0E95CD80146
:1021F000EC93232B242B252B61F7B80189E097E082
:102200000E94E20BA1960FB6F894DEBF0FBECDBFC1
:10221000DF91CF911F910F91BF90AF909F908F90C2
:102220000895833081F028F4813099F08230A1F054
:1022300008958730A9F08830B9F08430D1F48091C6
:1022400080008F7D03C0809180008F778093800015
:10225000089584B58F7702C084B58F7D84BD0895BD
:102260008091B0008F7703C08091B0008F7D809304
:10227000B00008951F93CF93DF93282F30E0F9012A
:10228000E458F94F8491F901E255F94FD491F901DD
:10229000E656F94FC491CC23C1F0162F81110E944C
:1022A0001111EC2FF0E0EE0FFF1FEE58F94FA59142
:1022B000B4919FB7F894111104C08C91D095D82394
:1022C00002C0EC91DE2BDC939FBFDF91CF911F9179
:1022D00008952091F50621112BC02091F006309130
:1022E000F1064091F2065091F306821793077CF0B5
:1022F0008417950764F46091F406611108C0809119
:10230000EE060E943A1181E08093F4060895841746
:1023100095071CF4821793075CF48091F4068823D8
:1023200039F061E08091EE060E943A111092F406B5
:1023300008951092F9051092F80510922206109255
:1023400044061092200681E080931F061092FA0541
:1023500061E082E10E943A1161E083E10E943A115A
:10236000E9EBF0E080818E7F808380818D7F8083A8
:1023700088E48093B80085E48093BC0083EE9AE003
:102380009093F7058093F60584EE9AE09093F50517
:102390008093F4050895CF93DF9390E0FC01E2551C
:1023A000F94F2491FC01E656F94F8491882361F19D
:1023B00090E0880F991FFC01E859F94FC591D4911D
:1023C000FC01EE58F94FA591B491611109C09FB776
:1023D000F8948881209582238883EC912E230BC06A
:1023E000623061F49FB7F8948881322F309583234F
:1023F0008883EC912E2B2C939FBF06C08FB7F89447
:10240000E8812E2B28838FBFDF91CF9108958F9283
:102410009F92AF92BF92CF92DF92EF92FF926B01A9
:102420007C010E9441124B015C01C114D104E10402
:10243000F104F1F00E944112DC01CB0188199909E5
:10244000AA09BB09883E9340A105B10570F321E0BC
:10245000C21AD108E108F10888EE880E83E0981EC0
:10246000A11CB11CC114D104E104F10419F7DDCFA2
:10247000FF90EF90DF90CF90BF90AF909F908F90A4
:1024800008953FB7F8948091480790914907A0912B
:102490004A07B0914B0726B5A89B05C02F3F19F0FE
:1024A0000196A11DB11D3FBFBA2FA92F982F8827D4
:1024B000820F911DA11DB11DBC01CD0142E0660F2F
:1024C000771F881F991F4A95D1F708951F920F9281
:1024D0000FB60F9211242F933F938F939F93AF9337
:1024E000BF938091430790914407A0914507B09115
:1024F00046073091470723E0230F2D3720F401963C
:10250000A11DB11D05C026E8230F0296A11DB11D16
:10251000209347078093430790934407A093450770
:10252000B09346078091480790914907A0914A07C8
:10253000B0914B070196A11DB11D80934807909360
:102540004907A0934A07B0934B07BF91AF919F9162
:102550008F913F912F910F900FBE0F901F90189564
:10256000CF93DF93CDB7DEB763970FB6F894DEBF96
:102570000FBECDBF789484B5826084BD84B5816080
:1025800084BD85B5826085BD85B5816085BD80913E
:102590006E00816080936E001092810080918100B6
:1025A00082608093810080918100816080938100AE
:1025B000809180008160809380008091B100846070
:1025C0008093B1008091B00081608093B0008091D1
:1025D0007A00846080937A0080917A008260809390
:1025E0007A0080917A00816080937A0080917A00ED
:1025F000806880937A001092C10061E08DE00E94B3
:10260000CB110E94991182E0809322078CE3809382
:102610002107809123078F3F09F4BDC061E08091BD
:1026200025070E94CB1161E0809127070E94CB1102
:1026300080912707082E000C990BFC01E656F94FF4
:10264000E491F0E0EE0FFF1FEE58F94F2591349121
:1026500030932E0720932D07FC01E255F94FE491AA
:10266000E093330780912507082E000C990BFC019D
:10267000E656F94FE491F0E0EE0FFF1FEE58F94FE8
:10268000259134913093300720932F07FC01E255B8
:10269000F94FE491E09334078091280781113EC0FF
:1026A00061E0809123070E94CB1161E080912407B3
:1026B0000E94CB1180912407082E000C990BFC017D
:1026C000E656F94FE491F0E0EE0FFF1FEE58F94F98
:1026D0002591349130932C0720932B07FC01E25570
:1026E000F94FE491E093320780912307082E000C04
:1026F000990BFC01E656F94FE491F0E0EE0FFF1F55
:10270000EE58F94F2591349130932A0720932907E9
:10271000FC01E255F94FE491E093310780912807DD
:10272000882309F43AC01FB7F8948091F30581110A
:1027300027C0E4EAF6E08491E8EBF6E09491E82F14
:10274000F0E0EE0FFF1FE859F94FA591B491EC911D
:10275000E92321F461E08AE00E943A1161E08AE015
:102760000E94CB118CB580618CBD8CB580648CBD12
:1027700061E08DE00E94CB1161E08BE00E94CB1103
:102780008091F3058F5F8093F3051FBF80E58CBDBB
:1027900081E08DBD02C00E9499118091260787FDBE
:1027A0001EC061E00E94CB1161E0809126070E946B
:1027B0003A1161E070E080E090E00E94071260E072
:1027C000809126070E943A116AE070E080E090E074
:1027D0000E94071261E0809126070E943A118EEA5A
:1027E0000E94FB0F85ED0E94FB0F80E80E94FB0F0B
:1027F00088EA0E94FB0F8FE30E94FB0F83ED0E948B
:10280000FB0F80E00E94FB0F80E40E94FB0F8DE82D
:102810000E94FB0F84E10E94FB0F80E20E94FB0FED
:1028200080E00E94FB0F81EA0E94FB0F88EC0E946F
:10283000FB0F8AED0E94FB0F82E10E94FB0F81E8F3
:102840000E94FB0F8FEC0E94FB0F89ED0E94FB0F93
:1028500081EF0E94FB0F8BED0E94FB0F80E40E9432
:10286000FB0F84EA0E94FB0F86EA0E94FB0F8EE2B8
:102870000E94FB0F8FEA0E94FB0F80E094E0E0E0F3
:10288000F1E0DF019C011D9221503040E1F70E94F0
:102890004510E091FB06F091FC0613861586148620
:1028A000DF011B9633961E92AE17BF07E1F7109219
:1028B000FA0601E0BE01665F7F4F8091FB069091B2
:1028C000FC060E94540E882309F45AC067E0CE012A
:1028D0000A960E947D0D99898913ECCF8091F606A6
:1028E000811127C08091FB069091FC060E941D0E6D
:1028F000BE01665F7F4F8091FB069091FC060E94AF
:10290000BE0D40E064EB8091FB069091FC060E94B6
:102910008A0D8091FB069091FC060E94DD0D182F18
:102920008091FB069091FC060E941D0E112309F474
:102930006BC1BE016F5F7F4FCE010A960E94120FDE
:102940001091F7068A85803109F432C3CE010A96C8
:102950000E946B0F811718F48091F70609C08A85D1
:10296000803111F48CE004C0CE010A960E946B0FF6
:102970008093F7068091FA068F5F8093FA069ACFCC
:10298000E0915506F091560682E08083E091510671
:10299000F09152061082E0915306F09154068FECAC
:1029A000808310925D06E0915906F0915A0686E008
:1029B0008083E0915706F091580680818061808382
:1029C000E0915706F0915806808188608083E091FD
:1029D0005706F0915806808180688083E091570601
:1029E000F091580680818F7D808368EB7BE080E0EA
:1029F00090E00E94071260E086E00E94CB117724ED
:102A0000739488248394912C7092210688E6809395
:102A10004306109222061092440660E082EE96E091
:102A20000E943E0B81E00E949F0F80912006811141
:102A3000FCCF7092200670921F068FEF80931E06C7
:102A400010921D0686E080931C067092FB05809113
:102A5000FB05806D8093FB058091FA05813061F460
:102A60001092FA058091FB058093BB008091BC0019
:102A700083FDF8CF85EC01C085EE8093BC0080918A
:102A800020068130E1F380911D06873018F4909183
:102A90001D0601C097E0ACEFB5E0E3EDF5E080E0A6
:102AA000891721F02D9121938F5FFACF1092F905AC
:102AB0008093F80582EE96E00E94F50A82EE96E099
:102AC0000E94F50A9C013327E4E035952795EA95A5
:102AD000E1F7FAEFFF2E082FF29E000D112482EE8F
:102AE00096E00E94F50A9C013327A4E035952795CE
:102AF000AA95E1F7182FF29E100D112482EE96E0B0
:102B00000E94F50A82EE96E00E94F50A9C013327A6
:102B1000B4E035952795BA95E1F7B82EF29EB00C42
:102B2000112482EE96E00E94F50A9C01332794E07E
:102B3000359527959A95E1F7A82EF29EA00C1124C1
:102B400082EE96E00E94F50A9C01332744E0359519
:102B500027954A95E1F7F29E800D1124482F50E009
:102B60005B8B4A8B5090F5068091FB069091FC069A
:102B70000E941D0E40E06CEC8091FB069091FC06DB
:102B80000E948A0D4091F60664E48091FB069091C4
:102B9000FC060E948A0D8091F8068823A9F0E09136
:102BA000F706E950E33040F4F0E0EE0FFF1FEA5E75
:102BB000FA4F6081718102C06EEE72E0072E000C48
:102BC000880B990B0E940712E091FB06F091FC061E
:102BD000138615861486DF011B96CF0103961E927D
:102BE000A817B907E1F7BE01665F7F4FCF010E94CA
:102BF000540E882361F067E0CE010A960E947D0D95
:102C00009989891304C0D8C10093F60692CE8AE947
:102C1000C82E89E9D82E84E4E82E83ECF82E1A8297
:102C200019821C821B821E821D8240E050E06CE7EC
:102C300075E0CE0101960E94A20B552029F046E0D6
:102C400050E06CE575E004C047E050E063E675E0F5
:102C5000CE0101960E94A20BE0E0F1E020E034E01A
:102C6000119221503040E1F782E080931D0790924D
:102C70001C0780921B0790921A07809219071092E6
:102C80001607109215071092180710921707A70140
:102C90009601C701B6010E94271B882319F06BE635
:102CA00075E01AC016012701E89457F82FEF3FEF9F
:102CB0004FE75FE7C201B1010E94271B811111C0DC
:102CC0002FEF3FEF4FE75FE7C201B1010E942B19E1
:102CD00018163CF46FE675E089E097E00E94E20B7D
:102CE00076C02FEF3FEF4FE75FE4C701B6010E94C8
:102CF000221B18161CF463E775E0EECF2FEF3FEFB1
:102D00004FE75FECC701B6010E942B1987FDF3CF97
:102D100020E030E0A901C701B6010E942B1987FF0E
:102D200009C06DE289E097E00E949904F7FAF094F7
:102D3000F7F8F0942AE037ED43EA5BE3C701B60108
:102D40000E94871A1B012C010E94F31A6B017C015F
:102D50000E9430199B01AC01C201B1010E94861A88
:102D60001B012C014AE0C701B6010E94CE106EE2A1
:102D700089E097E00E94990420E030E040E251E4CD
:102D8000C201B1010E9491191B012C010E94F31A8A
:102D90006B01E12CF12C4AE0C701B6010E94CE1074
:102DA000C701B6010E9430199B01AC01C201B101FB
:102DB0000E94861A20E030E040E251E40E9491191E
:102DC0000E94F31A80E090E04AE00E94CE1067E78C
:102DD00075E089E097E00E94E20B6AE775E089E020
:102DE00097E00E94E20B612F70E080E090E04AE003
:102DF0000E94CE106DE775E089E097E00E94E20B3B
:102E0000602F70E080E090E04AE00E94CE106AE718
:102E100075E089E097E00E94E20B6A2D70E080E0A7
:102E200090E04AE00E94CE106FE775E089E097E0FD
:102E30000E94E20B6B2D70E080E090E04AE00E947F
:102E4000CE106FE775E089E097E00E94E20B6A8997
:102E50007B896053784F072E000C880B990B4AE052
:102E60000E94CE106AE775E089E097E00E94E20BCD
:102E70004D815E8169817A8189E097E00E948C03AF
:102E80000E94451064E670E080E090E00E94071226
:102E900089819A810E94141C6091F5068DE00E9440
:102EA0003A11012F10E0C8010E9469118FB7F89400
:102EB000C0904307D0904407E0904507F090460744
:102EC0008FBFD701C6018C199D09AE09BF09803D8E
:102ED0009740A105B10508F044C0E2E8F6E084910E
:102EE000E4EBF6E0A490E0EAF6E0B490BB2009F44D
:102EF0003BC081110E941111EB2DF0E0EE0FFF1F7E
:102F0000E057F94FA591B4918C91A82269F1809175
:102F1000F50687258093F506882309F445C080913E
:102F2000F406811139C060E08091EE060E943A11EA
:102F30007092F40661E875E085E496E00E94E20B89
:102F40006AE775E085E496E00E94E20B6091F50681
:102F50008DE00E943A1164EF71E080E090E00E9401
:102F600007120E948E0450CD62E370E080E090E092
:102F70000E9407122FB7F89480914307909144075D
:102F8000A0914507B09146072FBF8C159D05AE0552
:102F9000BF0508F098CFE5CF61E08091EE060E9472
:102FA0003A111092F406C6CFC8010E946911C2CF2F
:102FB0001D3008F0D1CCD6CCBE016F5F7F4FCE0163
:102FC0000A960E94120F68E0CE0101960E947D0DC4
:102FD0009985891347C02A8130E0C901982F882735
:102FE000990F990F990F698158E0659FB0011124DD
:102FF0009C01262B372B8A858031C9F4688570E0C7
:103000008F81DB01A81BB109CD019695982F8827E8
:10301000979587950E942C1B60517109207F53E082
:10302000220F331F5A95E1F7620F731F01C0B901D8
:103030006138B4EE7B070CF4EACD072E000C880B48
:10304000990B0E94321926E636E646E65CE30E94BA
:10305000911920E030E040E052E40E94871A6B01B1
:103060007C01DDCD60E874EEE3CF1092480610924B
:10307000470688EE93E0A0E0B0E080934906909385
:103080004A06A0934B06B0934C0620E235E03093FD
:1030900046062093450625EC30E0309352062093F7
:1030A000510624EC30E0309354062093530620EC74
:1030B00030E0309356062093550621EC30E03093F3
:1030C00058062093570622EC30E030935A0620939E
:1030D000590626EC30E030935C0620935B06109294
:1030E0005E0610925F0610926006109261061092C2
:1030F000E5061092E4068093E6069093E706A09317
:10310000E806B093E90682E395E09093E3068093A6
:10311000E20610920C0710920B0720E830E0309383
:103120000E0720930D0780E490E0909310078093A2
:103130000F07309312072093110790931407809381
:10314000130710921E07109216071092150710927F
:1031500018071092170781E080931D072FEF3FEFAC
:1031600030931C0720931B0730931A0720931907ED
:1031700080931F071092200784E495E090930A073C
:10318000809309078FEF809323078093270780930D
:103190002507809324078093260760E08AE00E9439
:1031A000CB11E8EBF6E0E491E0933507E4EAF6E0D2
:1031B000E491F0E0EE0FFF1FE057F94F85919491F5
:1031C000909337078093360710924007109242077A
:1031D00010924107E0E4F7E088E397E012928E173F
:1031E0009F07E1F785EE9AE0909308078093070721
:1031F00085E397E09093FC068093FB061092FA0615
:103200001092F60689E08093F70681E08093F80635
:103210008093F90687E090E09093EF068093EE06A6
:1032200061E00E94CB118AE090E09093F1068093D8
:10323000F00686E190E09093F3068093F2061092F8
:10324000F40661E08091EE060E943A111092F406B5
:103250001092F50608950E946D1908F481E0089512
:10326000E89409C097FB3EF4909580957095619520
:103270007F4F8F4F9F4F9923A9F0F92F96E9BB27D6
:103280009395F695879577956795B795F111F8CF52
:10329000FAF4BB0F11F460FF1BC06F5F7F4F8F4FBD
:1032A0009F4F16C0882311F096E911C0772321F0B3
:1032B0009EE8872F762F05C0662371F096E8862F4B
:1032C00070E060E02AF09A95660F771F881FDAF7A2
:1032D000880F9695879597F90895990F0008550FCF
:1032E000AA0BE0E8FEEF16161706E807F907C0F08C
:1032F00012161306E407F50798F0621B730B840B94
:10330000950B39F40A2661F0232B242B252B21F46D
:1033100008950A2609F4A140A6958FEF811D811D0D
:1033200008950E94A4190C94151A0E94071A38F0E7
:103330000E940E1A20F0952311F00C94FE190C94A3
:10334000041A11240C94491A0E94261A70F3959FAE
:10335000C1F3950F50E0551F629FF001729FBB278C
:10336000F00DB11D639FAA27F00DB11DAA1F649F28
:103370006627B00DA11D661F829F2227B00DA11DDB
:10338000621F739FB00DA11D621F839FA00D611D61
:10339000221F749F3327A00D611D231F849F600D82
:1033A000211D822F762F6A2F11249F5750409AF0AB
:1033B000F1F088234AF0EE0FFF1FBB1F661F771F37
:1033C000881F91505040A9F79E3F510580F00C9402
:1033D000FE190C94491A5F3FE4F3983ED4F38695A6
:1033E00077956795B795F795E7959F5FC1F7FE2BA2
:1033F000880F911D9695879597F9089597F99F677E
:1034000080E870E060E008959FEF80EC089500246C
:103410000A941616170618060906089500240A9439
:1034200012161306140605060895092E0394000CBF
:1034300011F4882352F0BB0F40F4BF2B11F460FF4E
:1034400004C06F5F7F4F8F4F9F4F089557FD905877
:10345000440F551F59F05F3F71F04795880F97FB58
:10346000991F61F09F3F79F0879508951216130612
:103470001406551FF2CF4695F1DF08C01616170641
:103480001806991FF1CF8695710561050894089576
:10349000E894BB2766277727CB0197F908952F92E9
:1034A0003F924F925F926F927F928F929F92AF92D4
:1034B000BF92CF92DF92EF92FF920F931F93CF9321
:1034C000DF93CDB7DEB7CA1BDB0B0FB6F894DEBFB8
:1034D0000FBECDBF09942A88398848885F846E84DE
:1034E0007D848C849B84AA84B984C884DF80EE8028
:1034F000FD800C811B81AA81B981CE0FD11D0FB631
:10350000F894DEBF0FBECDBFED0108955058BB2724
:10351000AA270E949E1A0C94151A0E94071A38F0C6
:103520000E940E1A20F039F49F3F19F426F40C94EF
:10353000041A0EF4E095E7FB0C94FE19E92F0E94A3
:10354000261A58F3BA17620773078407950720F005
:1035500079F4A6F50C94481A0EF4E0950B2EBA2FC8
:10356000A02D0B01B90190010C01CA01A001112489
:10357000FF27591B99F0593F50F4503E68F11A1635
:10358000F040A22F232F342F4427585FF3CF4695C6
:1035900037952795A795F0405395C9F77EF41F16E8
:1035A000BA0B620B730B840BBAF09150A1F0FF0FB2
:1035B000BB1F661F771F881FC2F70EC0BA0F621F9E
:1035C000731F841F48F4879577956795B795F7958E
:1035D0009E3F08F0B0CF9395880F08F09927EE0F23
:1035E0009795879508950E942E1A88F09F5798F016
:1035F000B92F9927B751B0F0E1F0660F771F881FF8
:10360000991F1AF0BA95C9F714C0B13091F00E9411
:10361000481AB1E008950C94481A672F782F88272C
:10362000B85F39F0B93FCCF3869577956795B39538
:10363000D9F73EF490958095709561957F4F8F4FA7
:103640009F4F08950E946D1908F48FEF08950E940E
:103650006D19880B990B089597FB072E16F40094AB
:1036600007D077FD09D00E94621B07FC05D03EF40D
:10367000909581959F4F0895709561957F4F08951E
:10368000A1E21A2EAA1BBB1BFD010DC0AA1FBB1F66
:10369000EE1FFF1FA217B307E407F50720F0A21BD8
:1036A000B30BE40BF50B661F771F881F991F1A9445
:1036B00069F760957095809590959B01AC01BD016F
:1036C000CF010895AA1BBB1B51E107C0AA1FBB1F56
:1036D000A617B70710F0A61BB70B881F991F5A959E
:1036E000A9F780959095BC01CD010895EE0FFF1FBD
:1036F0000590F491E02D09940F931F93CF93DF93DE
:103700008230910510F482E090E0E0914E07F09154
:103710004F0720E030E0A0E0B0E0309719F14081A1
:1037200051810281138148175907C8F08417950702
:1037300069F4109731F012960C93129713961C931C
:1037400027C000934E0710934F0722C02115310563
:1037500019F04217530718F49A01BD01EF01DF0178
:10376000F801DBCF21153105F9F0281B390B243086
:10377000310580F48A819B816115710521F0FB017F
:103780009383828304C090934F0780934E07FE017A
:10379000329644C0FE01E20FF31F819391932250B1
:1037A0003109398328833AC020914C0730914D0765
:1037B000232B41F4209102053091030530934D07EE
:1037C00020934C072091000530910105211531050A
:1037D00041F42DB73EB74091040550910505241BD7
:1037E000350BE0914C07F0914D07E217F307A0F479
:1037F0002E1B3F0B2817390778F0AC014E5F5F4F47
:103800002417350748F04E0F5F1F50934D07409324
:103810004C078193919302C0E0E0F0E0CF01DF918B
:10382000CF911F910F910895CF93DF93009709F4E3
:1038300081C0FC01329713821282A0914E07B09191
:103840004F07109781F420813181820F931F2091BF
:103850004C0730914D072817390751F5F0934D0764
:10386000E0934C0767C0ED0120E030E0CE17DF07A2
:1038700040F44A815B819E0141155105F1F0EA0156
:10388000F5CFD383C28340815181840F951FC81720
:10389000D90759F488819981840F951F02969183E5
:1038A00080838A819B81938382832115310529F44A
:1038B000F0934F07E0934E073DC0E901FB83EA8395
:1038C00049915991C40FD51FEC17FD0761F4808110
:1038D0009181840F951F0296E901998388838281E3
:1038E00093819B838A83E0E0F0E012968D919C9116
:1038F0001397009719F0FD01DC01F7CF8D919C9192
:1039000011979D012E5F3F4F820F931F20914C070F
:1039100030914D072817390769F4309729F4109230
:103920004F0710924E0702C013821282B0934D07C8
:10393000A0934C07DF91CF910895A0E0B0E0E3EAB7
:10394000FCE10C94531AEC01009721F4CB010E9486
:103950007C1BB4C0FC01E60FF71F9C01225031090B
:10396000E217F30708F4A8C0D9010D911C91119733
:1039700006171707B0F00530110508F49BC0C80101
:1039800004978617970708F495C002501109061B83
:10399000170B019311936D937C93CF010E94141C1C
:1039A00089C05B01A01AB10A4C01800E911EA09142
:1039B0004E07B0914F07612C712CE12CF12C109720
:1039C00009F446C08D919C911197A815B905B1F5E0
:1039D0006C0142E0C40ED11CCA14DB0478F14C0126
:1039E0008A189B08640142E0C40ED11C1296BC9058
:1039F00012971396AC91B5E0CB16D10440F0B28289
:103A0000A38391828082D9016D937C9309C00E5F5C
:103A10001F4F800F911FF90191838083EB2DFA2FA7
:103A2000E114F10431F0D7011396FC93EE93129751
:103A300041C0F0934F07E0934E073CC068167906EB
:103A400008F43C017D0112960D90BC91A02DB7CFDA
:103A500080914C0790914D0788169906E1F46616FF
:103A60007706C8F48091000590910105009741F414
:103A70008DB79EB74091040550910505841B950BA9
:103A8000E817F907C8F4F0934D07E0934C07F901E4
:103A9000718360830FC0CB010E947C1B7C01009767
:103AA00059F0A801BE010E94681DCE010E94141C9D
:103AB000C70104C0CE0102C080E090E0CDB7DEB700
:103AC000EEE00C946F1A81E090E0F8940C94781D6D
:103AD000FB01DC0102C001900D9241505040D8F72B
:103AE0000895FB01DC0101900D920020E1F708959B
:043AF000F894FFCF78
:103AF40000000000000000000000000000000000C2
:103B040000000000000000000000000000000000B1
:103B140000000000000000000000000000000000A1
:103B24000000000000000000000000000000008011
:103B34008080000000000000000000000000000081
:103B4400008080C0C00000000000000000000000F1
:103B54000000000000000000000000000000000061
:103B64000000000000000000000000000000000051
:103B74000000000000000000000000000000000041
:103B84000000000080C0E0F0F8FCF8E00000000055
:103B940000000000000000000000000000808080A1
:103BA400808000808000000000808080808000FF92
:103BB400FFFF000000008080808000008080000003
:103BC40080FFFF8080008080008080808000808073
:103BD4000000000000808000008C8E84000080F8CB
:103BE400F8F8800000000000000000000000000061
:103BF400F0F0F0F0F0F0F0F0F0F0F0F0E0E0C08081
:103C040000E0FCFEFFFFFF7FFFFFFFFFFF0000005F
:103C14000000000000000000000000FEFFC70101DA
:103C2400010183FFFF00007CFEC70101010183FF46
:103C3400FFFF0038FEC78301010183C7FFFF0000B7
:103C440001FFFF010100FFFF0701010100007FFFE9
:103C540080000000FFFF7F0000FFFFFF000001FF66
:103C6400FFFF010000000000000000000000000051
:103C7400030F3F7F7FFFFFFFFFFFFFFFE7C7C78FF4
:103C84008F9FBFFFFFC3C0F0FFFFFFFFFFFCFCFCE3
:103C9400FCFCFCFCFCF8F8F0F0E0C00001030303BA
:103CA40003030103030000000001030303030101F4
:103CB40003010000000103030303010103030000E7
:103CC40000030300000003030000000000000001E3
:103CD40003030303030100000001030100000003C8
:103CE40003010000000000000000000000000000CC
:103CF40000000080C0E0F0F9FFFFFFFFFF3F1F0F4F
:103D040087C7F7FFFF1F1F3DFCF8F8F8F87C7DFF1D
:103D1400FFFFFFFFFFFFFF7F3F0F07003030000072
:103D2400000000000000000000000000000000008F
:103D340000000000FEFEFC00000000000000000087
:103D440000000000000000000000000000E0C000CF
:103D540000000000000000000000303000000000FF
:103D6400000000000000000000000000000000004F
:103D740000C0FEFFFFFFFFFFFFFFFFFF7F7F3F1F2E
:103D84000F071F7FFFFFF8F8FFFFFFFFFFFEF8E0BC
:103D9400000000010000000000000000FEFE000022
:103DA40000FCFEFC0C06060EFCF80000F0F81C0EED
:103DB4000606060CFFFFFF0000FEFE00000000FCEC
:103DC400FEFC00183C7E66E6CE84000006FFFF067B
:103DD40006FCFEFC0C0606060000FEFE0000C0F811
:103DE400FC4E4646464E7C7840183C76E6CECC8067
:103DF40000000000000000000000000000000000BF
:103E04000000000001070F1F1F3F3F3F3F1F0F032C
:103E14000000000000000000000000000F0F000080
:103E2400000F0F0F000000000F0F000003070E0C1F
:103E340018180C060F0F0F0000010F0E0C180C0FB2
:103E4400070100040E0C180C0F070000000F0F00F0
:103E5400000F0F0F0000000000000F0F000000070C
:103E6400070C0C181C0C060600040E0C180C0F078B
:103E7400000000000000000000000000000000003E
:103E8400000000000000000000000000000000002E
:103E9400000000000000000000000000000000001E
:103EA400000000000000000000000000000000000E
:103EB40000000000000000000000000000000000FE
:103EC40000000000000000000000000000000000EE
:103ED40000000000000000000000000000000000DE
:103EE40000000000000000000000000000000000CE
:103EF400000050078000000103070F1F3F7F008070
:103F0400C0E0F0F8FCFE5E00BC0077010000000099
:103F14001F048C03B6036C04E703C503D903000034
:103F240000003E0B110B6E0BE50A090BF50AE60ABD
:103F34000000000099048C036E0B6D0B130AAC0691
:103F44005E07B8085D06FB05DE0598044F523A206B
:103F54004F4E004F523A204F4646006E616E006944
:103F64006E66006F7666002046000D0A003A002F48
:103F740000627574746F6E2070726573736564008B
:00000001FF
